:1000000033C0000039C0000037C0000035C0000018
:1000100033C0000031C000002FC000002DC0000020
:100020002BC0000029C0000027C0000025C0000030
:1000300023C0000021C000001FC000001DC0000040
:100040001BC0000019C0000017C0000015C0000050
:1000500013C0000011C000000FC000000DC0000060
:100060000BC0000009C0000011241FBECFEFD4E078
:10007000DEBFCDBF02D03DC0C3CFCF93DF9314B856
:1000800085B1876085B9239A85E090E01FD0C8EAE2
:10009000D1E6189906C02B9A81E023D0189BFECF99
:1000A000F8CF199909C082E01CD0CE010197F1F771
:1000B0002B98199BFECFEDCF1A99EBCF83E011D08F
:1000C000CE010197F1F71A9BFECFE3CF9093C500C5
:1000D0008093C40088E18093C10086E08093C200D1
:1000E0000895982F8091C00085FFFCCF9093C600A3
:0600F0000895F894FFCF13
:00000001FF
