:1000000033C0000039C0000037C0000035C0000018
:1000100033C0000031C000002FC000002DC0000020
:100020002BC0000029C0000027C0000025C0000030
:1000300023C0000021C000001FC000001DC0000040
:100040001BC0000019C0000017C0000015C0000050
:1000500013C0000011C000000FC000000DC0000060
:100060000BC0000009C0000011241FBECFEFD4E078
:10007000DEBFCDBF02D02DC0C3CFCF93DF9314B866
:1000800085B1876085B9239A85E090E00FD0C8EAF2
:10009000D1E6189907C02B9A82E013D0CE010197C0
:1000A000F1F7F7CF1999F5CF2B98F3CF9093C500BF
:1000B0008093C40088E18093C10084E08093C200F3
:1000C0000895982F8091C00085FFFCCF9093C600C3
:0600D0000895F894FFCF33
:00000001FF
